:020000040800F2
:1000000068090020450200086132000867290008DD
:10001000CD2F0008350B00087940000800000000D3
:10002000000000000000000000000000F53800089B
:10003000B50E0008000000007D370008F738000802
:100040005F0200085F0200085F0200085F0200080C
:100050005F0200085F0200085F0200085F020008FC
:100060005F0200085F0200085F0200085F020008EC
:100070005F0200085F0200085F0200085F020008DC
:100080005F0200085F0200085F0200080000000035
:100090000000000000000000000000005F020008F7
:1000A0005F0200085F0200085F0200085F020008AC
:1000B0005F0200085F0200085F0200085F0200089C
:1000C0005F0200085F0200085F0200085F0200088C
:1000D0005F0200086D4000085F0200080000000099
:1000E0005F0200085F0200085F02000800000000D5
:1000F0000000000000000000000000005F02000897
:10010000000000005F0200085F0200085F020008B4
:1001100000000000000000000000000000000000DF
:100120005F0200085F0200085F0200085F0200082B
:100130005F02000800000000000000000000000056
:100140000000000000000000000000005F02000846
:100150005F0200085F0200085F0200085F020008FB
:100160005F0200085F0200080000000000000000BD
:10017000000000000000000000000000000000007F
:10018000000000005F020008000000000000000006
:100190005F02000800F002F800F044F80AA090E8BE
:1001A000000C82448344AAF10107DA4501D100F032
:1001B00039F8AFF2090EBAE80F0013F0010F18BFBB
:1001C000FB1A43F001031847404900006049000052
:1001D000103A24BF78C878C1FAD8520724BF30C873
:1001E00030C144BF04680C60704700000023002445
:1001F00000250026103A28BF78C1FBD8520728BF37
:1002000030C148BF0B607047752900F043816329F6
:1002100000F08383002070471FB504F027F91FBD4D
:1002200010B510BD00F0B7FB1146FFF7F5FF04F065
:1002300049F800F0D5FB03B4FFF7F2FF03BC00F070
:10024000DDFB00000948804709480047FEE7FEE75C
:10025000FEE7FEE7FEE7FEE7FEE7FEE7FEE7FEE776
:1002600004480549054A064B704700000D3A00084E
:100270009501000868030020680900206805002037
:100280006805002053EA020C00F069802DE9F04B6C
:100290004FF00006002B1FBFB3FA83F503FA05F4F5
:1002A00024FA05F65E4012BF1643B2FA82F502FA4E
:1002B00005F4C5F120051EBF22FA05FC44EA0C0432
:1002C000203556EA044C4FEA144418BF641C4FF022
:1002D00000084FF00009904271EB030C39D300295C
:1002E00019BFB1FA81F701FA07F6B0FA80F700FA00
:1002F00007F6C7F120071EBF20FA07FC46EA0C06E6
:100300002037B6FBF4FCA7EB0507103F07F01F0BE7
:10031000CBF120060CFA0BFB2CFA06F644BFB346D1
:100320000026202FA4BF5E464FF0000B5BEA060CB0
:1003300008BF4FF0010B19EB0B09ABFB027C48EB3C
:100340000608C01B06FB02CC0BFB03CC71EB0C01B7
:10035000C1E70B46024641464846BDE8F08B13B55F
:100360004FF000004FF00001AFF30080BDE81C40EB
:10037000704710B54C1084EA530404D54042C1F1D3
:10038000000138BF491E1B4204D55242C3F100038D
:1003900038BF5B1EFFF776FF14F0804F04D0404259
:1003A000C1F1000138BF491E14F0004F04D0524281
:1003B000C3F1000338BF5B1E10BD00000FB47CB555
:1003C0000C0009AA009001D02044401E084B7B4439
:1003D00069460190089800F076FA05461CB10020A5
:1003E000694600F083FA28467CBC5DF814FB0000E7
:1003F0002505000070B5044685690068C10601D571
:10040000302600E02026C00707D070BDD4E90121C6
:1004100030469047206A401C20626D1EF6D570BDA4
:1004200070B5044685690078C00707D170BDD4E96E
:10043000012120209047206A401C20626D1EF6D5C5
:1004400070BD70B50C460546012A05D02878800697
:1004500000D5EA69002302E0012305E05B1C93421A
:1004600002D2E05C0028F9D1A869E618C01AA86198
:10047000286A184428622846FFF7BCFF04E0D5E943
:10048000012114F8010B9047B442F8D32846FFF736
:10049000C7FF70BD2DE9F04106460024106875299C
:1004A000314616A510D0AFF30080002802DA404292
:1004B00013A507E031688A0701D512A502E04907B4
:1004C00004D511A5012401E0AFF3008000210A2228
:1004D00006F1240709E0B0FBF2FCB0FBF2F302FBEB
:1004E0001C00303078541846491C0028F3D12346AC
:1004F0002A463046BDE8F04100F086B90000000011
:100500002D0000002B000000200000002DE9F05F0E
:10051000894604464FF0000ADFF874B1FB44C0F886
:1005200020A02046E1688847002874D0252806D0FE
:10053000D4E901219047206A401C2062F1E700269F
:100540005F462046E16888472028054607DB312DB5
:1005500005D2781910F8200C08B10643F1E7B0076E
:1005600001D526F00406C4F81CA00027C4F818A082
:100570002A2D09D0284603F09DFE38B304EB8708E6
:10058000303DC8F8185019E059F8041B204604EB18
:1005900087029161E1688847012F054618D1E0691B
:1005A000002820DA26F020061DE0D8F8180000EB1D
:1005B000800005EB40003038C8F818002046E1689C
:1005C0008847054603F076FE0028EED1012F0AD0B9
:1005D0002E2D08D12046E16888477F1C0546022F52
:1005E00046F02006C4DBA069002803DA404246F04A
:1005F0000106A061F00701D026F010066C2D0BD08B
:10060000682D09D04C2D39D06A2D35D0742D35D0B8
:100610007A2D33D016E038E0E1682F46204688472F
:10062000B842054609D16C2F26D04FF48060E168AE
:10063000064320468847054604E06C2F1AD04FF445
:10064000807006430DB3A5F14100192802D820356A
:1006500046F400664A462946204626604E46FFF785
:10066000D3FD80B101280BD0F61D26F0070000F164
:10067000080956E74020E4E78020D8E70020D6E7C5
:1006800006F104094DE7284652E7206ABDE8F09FCD
:100690005E45000040EA010370B59B072ED14FF084
:1006A0000136042A2AD308C810C99D1B9D43121F76
:1006B00015EAC61517D0D8B2E1B2401A50EA056162
:1006C00010D198B2A1B2401A50EA05410AD123F0E4
:1006D0007F4024F07F41401A50EA052102D1180ED4
:1006E000A0EB146070BDA342DBD018BA21BA8842D7
:1006F00001D9012070BD4FF0FF3070BD0AB9002054
:1007000070BD10F8013B11F8014B63B1A3420AD14F
:10071000521E08D010F8013B11F8014B1BB1A34247
:1007200001D1521EEDD1181B70BD032A40F230805A
:1007300010F0030C00F0158011F8013BBCF1020F22
:10074000624498BF11F801CB00F8013B38BF11F8A3
:10075000013BA2F1040298BF00F801CB38BF00F8BA
:10076000013B11F0030300F0E480083AC0F0088078
:1007700051F8043B083A51F804CBA0E80810F5E71B
:10078000121D5CBF51F8043B40F8043BAFF30080FE
:10079000D20724BF11F8013B11F801CB48BF11F873
:1007A000012B24BF00F8013B00F801CB48BF00F843
:1007B000012B70474FF0000200B513469446964651
:1007C000203922BFA0E80C50A0E80C50B1F1200164
:1007D000BFF4F7AF090728BFA0E80C5048BF0CC012
:1007E0005DF804EB890028BF40F8042B08BF704770
:1007F00048BF20F8022B11F0804F18BF00F8012BE2
:1008000070477047704770472DE9F0470D4699468D
:100810009246044600F124080168880604D5E06980
:1008200021F01001216000E00120A84201DD471BFA
:1008300000E00027A1697A1902EB0900081AA061FB
:100840002078C00602D42046FFF7D4FD002608E039
:10085000D4E901211AF806009047206A401C761C52
:1008600020624E45F4DB2078C0060AD52046FFF70B
:10087000C1FD06E0D4E9012130209047206A401CE8
:100880002062381EA7F10107F4DC07E0D4E901215A
:1008900018F805009047206A401C2062281EA5F128
:1008A0000105F3DC2046FFF7BBFD2078000602D5EA
:1008B0000220BDE8F0870120FBE7000001694A1C27
:1008C00002610878704700B58FB0CDE90131002191
:1008D000059105497944CDE9031011466846FFF7B3
:1008E00015FE0FB000BD0000E5FFFFFF0A6802F82B
:1008F000010B0A607047D1E900239A4202D2531CCF
:100900000B601070704710B5436913B1AFF30080EE
:1009100001E0FFF796FD012010BD127800F12401DF
:100920000A7000224A700122EDE711684FF0FF3291
:10093000E9E710B5203AC0F00B80B1E81850203A32
:10094000A0E81850B1E81850A0E81850BFF4F5AF6F
:100950005FEA027C24BFB1E81850A0E8185044BFF9
:1009600018C918C0BDE810405FEA827C24BF51F866
:10097000043B40F8043B08BF7047D20728BF31F85A
:10098000023B48BF11F8012B28BF20F8023B48BFAB
:1009900000F8012B7047754600F02CF8AE460500B4
:1009A0006946534620F00700854618B020B5FFF78A
:1009B00057FCBDE820404FF000064FF000074FF015
:1009C00000084FF0000B21F00701AC46ACE8C0096D
:1009D000ACE8C009ACE8C009ACE8C0098D46704776
:1009E00010B50446AFF300802046BDE81040FFF785
:1009F00022BC00000048704708030020014918206D
:100A0000ABBEFEE72600020070470000464910B565
:100A10004A6822F440324A604A6843681A434A608E
:100A200001684A6822F480724A6001684A68036972
:100A300042EA03224A6001684A6822F040724A6032
:100A400001684A6883681A434A6001688A6822F428
:100A500000628A6001688A68C3681A438A60816A92
:100A60006FF07062D14201688A6822F070628A6019
:100A700001688A680CD0836A1A438A6001688A68B0
:100A800022F040528A6001688A68C36A1A4301E012
:100A900022F040528A6001688A6822F002028A606D
:100AA00001688A68037E42EA43028A6090F8201057
:100AB000002901684A680FD042F400624A60016868
:100AC0004A6822F460424A6001684A68174C436AE7
:100AD00004EB43331A4301E022F400624A600168E8
:100AE000CA6A22F47002CA620168CA6A838B104C17
:100AF00004EB03531A43CA6201688A6822F4007245
:100B00008A6001688A6890F8303042EA43228A603D
:100B100001688A6822F480628A6001688A68406994
:100B200042EA8020886010BD0023014000E0FFFF02
:100B30000000F0FFFEE770B504460D46084600F0E1
:100B400039F80146606828436060E2680320884005
:100B50008243E2602A04A261226882430120884025
:100B60000243226070BD000038B50B4800240168C4
:100B700041F0020101600068084D00F002000090A1
:100B80004021284600F008F98021284600F004F9A9
:100B900003488471847438BD303802400004024038
:100BA0003000002020B1411E084201D101207047D1
:100BB00000207047002101E04008491CC20701D114
:100BC0001029F9D3480070472DE9F0474FF000088D
:100BD0008946074645464E46EFF3108472B64946AD
:100BE0003846FFF7A8FF032000F066F93146384683
:100BF00000F0D2F80A2000F05FF93146384600F0E4
:100C0000DBFC012805D00026352000F055F914B191
:100C100002E00126F8E762B626B10120A840C0B282
:100C200040EA08086D1CEDB2082DD4D34046BDE85B
:100C3000F08700002DE9F041904605000E4629D0CE
:100C40000846FFF7AFFF28B3B8F1000F22D000200D
:100C50001B49074600EB400251F82230AB4216D147
:100C600001EB82029388B34211D100EB400011EBFB
:100C700080040FD0A07978B100F0A8FCA168401AD8
:100C800040F2EE2188420CD20120BDE8F081401CE8
:100C90000228DFD30420F8E72046BDE8F04100F049
:100CA000B9B8A77142463146284600F00BF8054610
:100CB000022802D0204600F0ADF82846E5E7000003
:100CC000300000202DE9FE431546060088463FD03F
:100CD0000846FFF767FFC8B3C5B34146304600F08A
:100CE0006EF8A0B3CC224146304600F0B7F8BE22E1
:100CF0004146304600F0B2F800246F464146304687
:100D0000FFF762FF3855641CE4B2092CF6D30020CB
:100D10006A4607241378002180EA030616F0010FC3
:100D20004FEA500001D080F08C00491C5B08C9B22A
:100D30000829F1D3641EE4B202F10102EAD29DF85F
:100D40000810884208D00320BDE8FE8300E001E0DF
:100D50000420F9E70220F7E7BDF800002880002012
:100D6000F2E7000038B5140011D06A46FFF762FFC1
:100D700000280BD1BDF90010DFED060A00EE101AB5
:100D8000B8EEC00A20EE200A84ED000A38BD042027
:100D900038BD00000000803D70B504460D46084691
:100DA000FFF708FFA561616829436160E2680321DC
:100DB00081408A43E26020688843206070BD70B53E
:100DC0000D460646EFF3108472B6FFF7E5FF0520E7
:100DD00000F072F829463046FFF7ADFE4FF4FA7086
:100DE00000F06AF829463046FFF7D6FF462000F0AB
:100DF00063F82946304600F0DFFB30B100254FF4A0
:100E0000CD7000F059F814B102E00125F7E762B6A1
:100E1000284670BD10B504001AD02068C0B1A08863
:100E2000FFF7C0FEA0B1A1882068FFF7C8FF88B116
:100E3000A188CC22206800F011F8A1884422206803
:100E400000F00CF800F0C2FBA0600120A07110BD02
:100E5000042010BD0020A071022010BD2DE9F04734
:100E6000164688468146002506F00107EFF31084F8
:100E700072B641464846FFF75EFE47B1062000F0D5
:100E80001BF841464846FFF787FF402007E03C201B
:100E900000F012F841464846FFF77EFF0A2000F0B6
:100EA0000BF804B962B676086D1CEDB2082DDBD3E1
:100EB000BDE8F087704700002DE9F0410F4D044672
:100EC000287808B900F01EF86B686FF00040B0FB9E
:100ED000F3F000B901200A4A002C0DD0844201D958
:100EE000014600E02146556801FB03F657687F1B69
:100EF000B742FBD3641AEFE7BDE8F0814800002059
:100F0000001000E010B502F043FD11481149012224
:100F10000068B0FBF1F11048416001B942600F492F
:100F20000B6843F080730B600D4900234B600C6825
:100F300044F001040C60BFF34F8FBFF36F8F49681B
:100F4000C0E902130021C0E90411027010BD0000C5
:100F50002C00002040420F0048000020FCED00E083
:100F6000001000E078B50024009490F83C20012A9D
:100F700019D0012280F83C200A6807230568092A55
:100F800013D9EE680A3A02EB420293409E43EE60A8
:100F90000B788A680A3B03EB43039A400368DD68D9
:100FA0002A43DA6010E0022078BD2E6902EB42028B
:100FB00093409E432E610B788A6803EB43039A406B
:100FC00003681D692A431A614A681F23072A13D23E
:100FD00005686E6B521E02EB820293409E436E6365
:100FE0000B790A885B1E92B203EB83039A40036875
:100FF0005D6B2A435A6327E005680D2A12D22E6BD7
:10100000D21F02EB820293409E432E630B790A8823
:10101000DB1F92B203EB83039A4003681D6B2A43E4
:101020001A6311E0EE6A0D3A02EB820293409E438E
:10103000EE620B790A880D3B92B203EB83039A4070
:101040000368DD6A2A43DA62164B0568144A9D423A
:1010500006D10D68122D03D1556845F48005556001
:1010600005689D4218D10B68102B01D0112B13D1AC
:10107000536843F400035360096810290CD10A49EE
:101080000A4A0968B1FBF2F101EB8101490000E075
:10109000491E00910029FBD180F83C40002078BD1A
:1010A00000230140002001402C00002040420F009E
:1010B0000068C06C704770B504004FF0000503D0A5
:1010C000206C002610B107E0012070BD204600F022
:1010D0001DF8666484F83C60206CC00610D4206C57
:1010E00020F4885040F0020020642046FFF78EFC78
:1010F0006664206C20F0020040F00100206400E0F3
:10110000012584F83C60284670BD000010B586B00B
:10111000044614216846FFF74DFB114920688842B8
:101120001CD110480021026842F4807202600068FD
:1011300000F4807005900B481438026842F00102F8
:101140000260006800F0010005900220009003207A
:10115000CDE901016946044800F03EF906B010BD32
:101160000020014044380240000002402DE9F041D7
:10117000044600680D4681684FF0000749050BD50D
:101180008068C00508D5206C40F02000206484F8F9
:101190003C700120BDE8F08100F018FA064613E02B
:1011A000681C11D025B100F011FA801BA8420BD9A0
:1011B00020680068800707D4206C40F00400206499
:1011C00084F83C700320E5E7206800688007E7D5D5
:1011D00021686FF012000860206C40F400702064F9
:1011E0002068816811F0405F13D1217E89B9C16AFE
:1011F00011F4700F02D0806840050AD4206C20F4EE
:1012000080702064206CC00403D4206C40F0010086
:1012100020640020BEE7000018B50021009190F87E
:101220003C20012A07D0012280F83C200268936804
:10123000DB0702D011E0022018BD936843F00103E0
:101240009360244A244B1268B2FBF3F202EB420291
:1012500000E0521E0092002AFBD102689368DB076F
:101260002ED0036C40F20164A34343F48073036403
:1012700053685B0505D5036C23F4005343F4805396
:101280000364036CDB0404D5436C23F0060343645E
:1012900000E0416480F83C1010496FF022031360B5
:1012A00049680068C90602D00D49884210D181689A
:1012B00011F0405F0CD1816841F08041816007E00E
:1012C000016C41F010010164416C41F00101416485
:1012D000002018BD2C00002040420F0000230140D8
:1012E0000020014090F83C1001290CD0012180F829
:1012F0003C1001688A6822F001028A6001688968EE
:10130000C90702D007E002207047016C21F4885120
:1013100041F001010164002180F83C10084670474B
:101320002DE9F0410446876D00F050F9064694F827
:1013300035000025022806D08020606584F83450EE
:101340000120BDE8F0812068016821F016010160EC
:101350002068416921F080014161206C08B9A06CCE
:1013600020B12068016821F008010160206801684F
:1013700021F0010101600CE000F028F9801B052834
:1013800007D920206065032084F8350084F83450A4
:10139000D7E720680068C007EED194F85C103F20C2
:1013A0008840B860012084F8350084F8345000206B
:1013B000C7E790F83510022903D08021416501204C
:1013C0007047052180F835100068016821F001019F
:1013D00001600020704700002DE9F84FDFF8B8A148
:1013E0000022012403254FF00F090AF1040BAAF192
:1013F000040E00BF0B6804FA02F63340B34273D107
:101400000F7907F00307012F01D0022F16D187684B
:101410004FEA420805FA08FC27EA0C07D1F80CC08D
:101420000CFA08FC4CEA070CC0F808C04768B74340
:101430000E79C6F3001696403E4346600E79F64399
:10144000B6070DD0C768560005FA06FC27EA0C0758
:10145000D1F808C00CFA06FC4CEA070CC0F80CC026
:101460000E7906F00306022E10D1D60800EB86088E
:10147000D8F8206057074FEAD76C09FA0CF7BE433B
:101480000F6907FA0CF73743C8F8207006684FEA6F
:10149000420C05FA0CF7BE430F7907F0030707FA71
:1014A0000CF7374307604E6816F4403F6DD03B4E53
:1014B000376847F480473760366822F0030706F440
:1014C00080460096364E07EB060CDCF80868970756
:1014D0003F0F09FA07F826EA0806DFF8C8804045FA
:1014E00003D14FF000081EE04FE0DFF8BC8040451C
:1014F00002D14FF0010816E0DFF8B080404502D17C
:101500004FF002080FE0DFF8A880404502D14FF00D
:10151000030808E0DFF89C80404502D14FF0040842
:1015200001E04FF0070808FA07F848EA0608CCF887
:101530000888DAF800605746D1F804C09E435FEA95
:10154000CC2C00D51E433E60DBF800605F46D1F82E
:1015500004C09E435FEA8C2C00D51E433E60DEF83B
:1015600000607746D1F804C09E435FEA8C3C00D50A
:101570001E433E60084F083F3E68D1F804C09E43BA
:101580005FEACC3C00D51E433E60521C102AFFF49B
:1015900031AFBDE8F88F0000083C014044380240FC
:1015A00000300140000002400004024000080240F8
:1015B000000C0240001002400069084000D00120E9
:1015C00070470AB1816170470904FBE701488068F0
:1015D000704700002000002070B5040025D094F86A
:1015E0003D00002520B984F83C50204600F04EF91B
:1015F000242084F83D002068016821F00101016089
:101600002068016841F4004101602068016821F40C
:101610000041016000F0B0FA4D4A6168914201D882
:101620004C4900E04C49884201D2012070BD4B4931
:101630002368B0FBF1F15E6826F03F060E435E6062
:101640006368934206D94FF4967359434FF47A7303
:10165000B1FBF3F12368491C1E6A26F03F063143B3
:1016600019626168914210D84900401EB0FBF1F246
:10167000521CC2F30B02042A01D2042022E0B0FB68
:10168000F1F0401CC0F30B001CE0A268F2B301EBC8
:10169000C10303EB0116431EB3FBF6F35B1C43F4DB
:1016A00080431B0549D092B301EBC10202EB01114B
:1016B000401EB0FBF1F0401CC0F30B0040F4804032
:1016C00040F400402168CA694CF6FF739A43104306
:1016D000C861D4E9071001432068026822F0C00203
:1016E00011430160D4E9030101432068826848F294
:1016F000FF339A4311438160D4E90501084321680F
:10170000CA6822F0FF021043C86001E00EE016E054
:101710002068016841F0010101602564202084F8FF
:101720003D00256384F83E50002070BD01EB41066A
:10173000431EB3FBF6F35B1CB3E70120C2E701EBEA
:101740004101401EB0FBF1F0401CC0F30B00B7E7B5
:10175000A086010080841E0000093D0040420F0069
:101760002DE9F84F1F4690468A460446DDF828903A
:10177000FFF72CFF054694F83D0020287FD1192360
:10178000012240492046009501F080F9002876D1D9
:1017900094F83C00012872D0012084F83C002068B5
:1017A0000168C90703D1016841F0010101602068A7
:1017B000016821F400610160212084F83D001020BF
:1017C00084F83E0000262664C4F824806785608D76
:1017D00020852D48E0622B464A465146204601F0BE
:1017E000DBF890B9206841698069009036E02A46AC
:1017F0004946204601F0F0F950B1206C042804D18C
:101800002068016841F4007101600120BDE8F88F93
:10181000606A216800780861606A401C6062618DBE
:10182000491E6185218D491E89B22185226853692F
:10183000DB435B070BD451B100781061606A401C38
:101840006062608D401E6085208D401E20852A4686
:101850004946204601F0EEF80028CED1208D002820
:10186000C5D154F83D0B016841F40071016020209E
:1018700004F81E09E67766770020C7E7FFE7022035
:10188000C4E70000020010000000FFFFF0B587B0C1
:10189000044614216846FEF78DFF1A4920688842E5
:1018A0002DD119480024016841F00201016000684F
:1018B000122500F0020005904FF48060CDE900058C
:1018C000032602940420CDE90360104F6946384690
:1018D000FFF782FD0820CDE9000502940920CDE93B
:1018E000036069463846FFF777FD07481030016806
:1018F00041F480010160006800F48000059007B0A9
:10190000F0BD0000005800403038024000040240A2
:1019100002488168027811448160704720000020ED
:101920000B4810B5016841F400710160016841F491
:1019300080610160016841F480710160032000F062
:101940006FF80F2000F006F800F024F8002010BD1A
:10195000003C024070B50D4D04464FF47A71287872
:10196000B1FBF0F00A490968B1FBF0F000F00CFBA4
:1019700048B9102C07D200222146501E00F030F842
:1019800000206C6070BD012070BD000020000020B0
:101990002C0000200A4808B5016841F4804101602C
:1019A000006800F4804000900548001F016841F085
:1019B00080510160006800F08050009008BD000078
:1019C00044380240002809DB00F01F020121914049
:1019D0004009800000F1E020C0F8001170470000CD
:1019E000F0B40E4B1B680C46C3F30223C3F107058A
:1019F000042D00D90425191D072901D2002300E078
:101A0000DB1E012606FA05F1491E214099409E4041
:101A1000761E16403143F0BC02F03CBC0CED00E0F9
:101A2000064900F0070208684FF6FF03184040EA35
:101A30000220034A10430860704700000CED00E0EC
:101A40000000FA052DE9F0470E46050065D0DFF8E5
:101A50001481D8F80000F7B200F00700B04207D2B6
:101A600088F80070D8F8000000F00700B04254D1A8
:101A700028683D4C810712D5400703D5206840F403
:101A8000E05020602878000703D5206840F46040CB
:101A900020602068A96820F0F000084320602878C2
:101AA000C0072DD0304968680839012812D00228B3
:101AB00013D0032811D00968890700292DDA21687D
:101AC00021F0030101432160FFF780FD814641F2CF
:101AD000883A0EE009688903EFE709688901ECE7B5
:101AE000FFF774FDA0EB0901514502D90320BDE8C1
:101AF000F0872068696800F00C00B0EB810FEFD12F
:101B0000D8F80010404601F00701B14207D907702C
:101B1000006800F00700B04201D00120E7E7287814
:101B2000400705D52068E96820F4E05008432060AC
:101B30002878000706D52068296920F4604040EA2B
:101B4000C100206000F038F82168084AC1F3031191
:101B5000515CC8400649086006480068FFF7FAFE75
:101B60000020C4E7003C02400838024076440008E8
:101B70002C00002024000020044805490068096862
:101B8000044AC1F38221515CC84070472C000020F8
:101B9000083802408644000804480549006809687E
:101BA000044AC1F34231515CC84070472C00002008
:101BB0000838024086440008154810B5006810F047
:101BC0000C02144813D01449042A0FD0082A0ED14D
:101BD0000F4C241F2268236802F03F025B0207D5E6
:101BE0002068C0F38810A0FB010106E0084610BD84
:101BF0002168C1F38811A1FB00010023FEF742FB1D
:101C00002168C1F30141491C4900B0FBF1F010BD4E
:101C1000083802400024F40040787D012DE9F84F97
:101C200004006ED02078DFF84C93C007A9F10405BA
:101C30004AD009F104000168C1F38101012908D0EB
:101C40000068C0F3810002280AD1D9F800004002E0
:101C500006D52868800337D560680028E1D033E0D6
:101C60006068B0F5803F10D0B0F5A02F286810D084
:101C700020F480302860286820F480202860606884
:101C8000A8B1FFF7A3FC06460DE0286840F48030B9
:101C9000F4E740F480202860F7E700BFFFF796FCE8
:101CA000801B642873D828688003F7D50CE0FFF701
:101CB0008DFC064605E000BFFFF788FC801B64280A
:101CC000F0D828688003F7D42078DFF8AC8280074A
:101CD0004FF0000A3ED5A748001D016811F00C0F17
:101CE00008D00068C0F3810002280BD1D9F80000A9
:101CF000400207D42868800716D5E068012800D183
:101D000012E033E1E068B8B10120C8F80000FFF745
:101D10005DFC064605E000BFFFF758FC801B02286B
:101D2000C0D828688007F7D52868216920F0F80016
:101D300040EAC10028600DE0C8F800A0FFF746FCAB
:101D4000064604E0FFF742FC801B02281FD82868E3
:101D50008007F7D42078000722D5864F874861692D
:101D6000703771B101210160FFF730FC064604E0D5
:101D7000FFF72CFC801B022809D838688007F7D5AC
:101D80000EE0C0F800A0FFF721FC064605E082E067
:101D9000FFF71CFC801B02287DD838688007F7D429
:101DA0002078400768D5DFF8CCB100270BF13C0B59
:101DB000DBF80000C0000BD4DBF8001041F08051CC
:101DC000CBF80010DBF80000012700F080500090F5
:101DD0006B4E3068C00510D4306840F480703060BD
:101DE000FFF7F4FB009005E0FFF7F0FB0099401AC5
:101DF000022850D83068C005F6D55E4EA0686C3613
:101E000001280FD00528306810D020F00100306084
:101E1000306820F004003060A068B8B1FFF7D6FB4E
:101E200000900FE0306840F00100F4E740F004005B
:101E30003060F7E7FFF7CAFB0099411A41F288309A
:101E4000814266D830688007F4D50EE0FFF7BEFB0C
:101E5000009007E0FFF7BAFB0099411A41F2883081
:101E6000814256D830688007F4D42FB1DBF80010D7
:101E700021F08051CBF80010A069C8B33D49091D7D
:101E80000968C1F3810102294AD00228504607D0CF
:101E9000C8F8600000E03CE0FFF798FB04463BE038
:101EA0004746C8F86000FFF791FB064605E000BF13
:101EB000FFF78CFB801B02282BD828688001F7D401
:101EC000D4E907010843A16A2E4A490802EB0141FF
:101ED000626A41EA8211084394F82C1040EA0161D9
:101EE000C9F8001001203866FFF770FB044606E0D1
:101EF0003EE000BFFFF76AFB001B022809D82868F4
:101F00008001F7D534E000BFFFF760FB001B02281B
:101F100002D90320BDE8F88F28688001F4D427E0B7
:101F20000128F7D0D9F80000E26900F4800191425D
:101F30001CD1226A00F03F01914217D147F6C071CF
:101F4000626A0140B1EB821F10D1A26A4FF0FF33E9
:101F500000F4403103EB5202B1EB024F06D194F88A
:101F60002C1000F07060B0EB016F01D00120D1E7C0
:101F70000020CFE70438024000004742800E47426D
:101F8000007000400000FFFF10B5401EB0F1807FE0
:101F900001D3012010BD4FF0E02460610F216017D4
:101FA00002F078F90020A06107202061002010BD18
:101FB00070B590F83C20012A2CD0012480F83C40D8
:101FC000022280F83D2003685A689D6822F070065E
:101FD0000A6832435A60104B02689A420ED0B2F13E
:101FE000804F0BD00D4B9A4208D00D4B9A4205D032
:101FF0000C4B9A4202D00C4B9A4204D1496825F00E
:1020000080031943916080F83D40002180F83C1026
:10201000084670BD022070BD000001400004004071
:1020200000080040000C00400040014010B50400D2
:1020300003D094F83D0010B107E0012010BD00204E
:1020400084F83C00204600F01FF8022084F83D0090
:10205000211D206801F0E2FC012084F8460084F88C
:102060003E0084F83F0084F8400084F8410084F882
:10207000420084F8430084F8440084F8450084F862
:102080003D00002010BD000010B586B004461421AC
:102090006846FEF78FFB226800211748B2F1804F97
:1020A0000CD016498A4207D1016841F00201016053
:1020B000006800F00200059006B010BD026842F012
:1020C00001020260006800F0010005900A48103823
:1020D000026842F0010202600068022200F0010082
:1020E00005900120CDE90002CDE902010490694686
:1020F0000348FFF771F9DFE7403802400004004071
:102100000000024090F83D10012901D001207047E5
:10211000022180F83D1000680E4988420ED0B0F1CF
:10212000804F0BD00C49884208D00C49884205D01A
:102130000B49884202D00B49884204D1816801F0E2
:102140000701062903D0016841F001010160002068
:1021500070470000000001400004004000080040FB
:10216000000C00400040014070B5044690F83C006F
:102170000025012817D0012684F83C60022084F84D
:102180003D002068826822F0770222F47F4282605C
:102190000868502838D00DDC20284FD005DC90B3DB
:1021A000102811D14AE0022070BD302846D04028C6
:1021B0000AD13BE060282FD070280DD0B0F5805FA9
:1021C00003D0B0F5005F12D0012584F83D600020F7
:1021D00084F83C00284670BDCB68D1E90121206815
:1021E00001F079FC2068816841F0770109E0CB6853
:1021F000D1E90121206801F06EFC2068816841F47A
:1022000080418160E1E719E0CA684968206801F00F
:102210005DFD5021206806E0CA684968206801F029
:1022200066FD6021206801F060FCCEE7CA6849685D
:10223000206801F04BFD40212068F4E72268014648
:102240001046F0E710B586B0044614216846FEF744
:10225000B1FA0D492068884214D10C480021026867
:1022600042F001020260006800F001000590402089
:1022700000900220CDE90101CDE903106946044830
:10228000FFF7AAF806B010BD000400403038024045
:102290000000024070B5044690F83C0000260D4650
:1022A00001280FD0012084F83C006AB1042A1DD017
:1022B000082A2FD00C2A3FD00126002084F83C00A9
:1022C000304670BD022070BD206801F017FC206808
:1022D000816941F0080181612068816921F0040170
:1022E0008161206881692A69114311E0206801F049
:1022F0002DFC2068816941F4006181612068816959
:1023000021F480618161206881692A6941EA0221A2
:102310008161D2E7206801F045FC2068C16941F085
:102320000801C1612068C16921F00401C161206810
:10233000C1692A69114311E0206801F05FFC20683F
:10234000C16941F40061C1612068C16921F4806103
:10235000C1612068C1692A6941EA0221C161ACE713
:1023600010B5040003D094F83D0010B107E001203F
:1023700010BD002084F83C00204600F01EF802202A
:1023800084F83D00211D206801F048FB012084F8FD
:10239000460084F83E0084F83F0084F8400084F84A
:1023A000410084F8420084F8430084F8440084F833
:1023B000450084F83D00002010BD704710B504466C
:1023C000022249B104290ED0082913D094F8410003
:1023D000012816D0012010BD94F83E000128F9D143
:1023E00084F83E200FE094F83F000128F2D184F8F1
:1023F0003F2008E094F840000128EBD184F8402009
:1024000001E084F841200122206801F057FB1249C5
:102410002068884203D1426C42F400424264206842
:1024200088420ED0B0F1804F0BD00C49884208D0C2
:102430000B49884205D00B49884202D00A4988429C
:1024400004D1816801F00701062903D0016841F039
:1024500001010160002010BD0000014000040040A7
:1024600000080040000C00400040014070B50446E8
:1024700090F83C00012812D0012584F83C5002203D
:1024800084F83D00204601F0DBFB01004FF0000026
:1024900007D084F83D5084F83C00012070BD022034
:1024A00070BD2168CA6822F04002CA602168CA680B
:1024B00022F48042CA6084F83D5084F83C00002039
:1024C00070BD704705498A68002A06D0904204D141
:1024D00000208880887000F07BBD7047B800002025
:1024E000F8B5016804460868CA684B6910F00F0F18
:1024F0004FF0000559D003F0010602F490773743FE
:1025000065D0C10705D0D10503D5616C41F001014B
:102510006164410705D5D90703D0616C41F0020120
:102520006164810705D5D90703D0616C41F00401CE
:102530006164010707D502F02001314303D0616CCB
:1025400041F008016164616C00293AD0800604D52D
:10255000900602D5204601F04DFC20684069616C70
:10256000C0F38010090700D460B3204601F01BFCC3
:1025700020684069400621D52068143050E8001FCB
:1025800021F0400140E80012002AF5D1E06BA8B12B
:1025900072490165E06BFEF70CFF002811D0E06B7B
:1025A000016D01B0BDE8F040084783060FD59306E2
:1025B0000DD52046BDE8F84001F01CBC2046FFF7D1
:1025C00081FFF8BD2046FFF77DFF6564F8BD266BEF
:1025D0002023012E7ED1C6067CD5D6067AD5086882
:1025E0004868009048694FF0020640064DD5E26BFE
:1025F000106840684FF480770004000C3AD0A18D39
:10260000814237D9E085D069B8422DD020680C309E
:1026100050E8001F21F4807140E80012002AF5D133
:102620002068143050E8001F21F0010140E800123A
:10263000002AF5D12068143050E8001F21F0400135
:1026400040E80012002AF5D184F842302563206862
:102650000C3050E8001F21F0100140E80012002A61
:10266000F5D1E06BFEF75CFE6663A08DE18D401A4C
:1026700081B206E0A18D8142A8D1D069B842A5D12E
:1026800066632046FFF71DFFF8BDA08DE18D401A5F
:1026900081B2E08D0028F7D00029F5D020680C30F9
:1026A00050E8002F22F4907240E80027002FF5D167
:1026B0002068143050E8002F22F0010240E8002783
:1026C000002FF5D184F84230256320680C3050E8A3
:1026D000002F00E006E022F0100240E80023002B6B
:1026E000F3D1CDE705062BD5150629D594F8410081
:1026F0002128C9D1A068B0F5805F01D12069B0B1AF
:10270000206A411C2162216800784860E08C401EEC
:102710000004000CE084B7D12068C16821F080017A
:10272000C1602068C16841F04001C160F8BD206A05
:102730000088C0F308004860206A801C2062E5E73A
:102740004006F3D55006F1D5CA68204622F0400273
:10275000CA6084F8413000F005F9F8BD993D0008E1
:1027600070B5040004D094F84100002510B106E0D3
:10277000012070BD84F84050204600F023F824204A
:1027800084F841002068C16821F40051C1602046EE
:1027900001F092FB2068016921F4904101612068F9
:1027A000416921F02A0141612068C16841F400516A
:1027B000C1606564202084F8410084F842006563AC
:1027C000002070BD10B586B0044614216846FDF7A0
:1027D000F1FF18492068884229D117480021026872
:1027E00042F010020260006800F0100005901248EC
:1027F0001438026842F001020260006800F0010033
:1028000005904FF4C06000900220CDE90101032043
:1028100003900720049069460848FEF7DDFD00227A
:1028200011462520FFF7DCF82520FFF7CBF806B08E
:1028300010BD00000010014044380240000002407A
:1028400090F84230202B01D00220704721B11AB1FC
:102850000023036301F0B6BB01207047174930B471
:102860008A68002A28D0904226D10A78144B012485
:1028700000200A2A05D00D2A19D04D786DB18C7030
:1028800015E08A7832B98A8822B14A7812B98A88E2
:1028900098544C708880887009E08D783DB98D8897
:1028A0003F2D07D288881A548888401C888030BC05
:1028B00000F08EBB8880E2E730BC7047B800002093
:1028C000C80200202DE9F843044690F841009846DC
:1028D00016460D46202802D00220BDE8F88385B1B7
:1028E0007EB100206064212084F84100FEF76EFE76
:1028F000A6848146E684A0682027B0F5805F02D0D8
:1029000003E00120E9E7206910B12E4600250EE022
:1029100000260CE08021204601F06FFBA8B9C6B16B
:1029200016F8010B21684860E08C401EE084E08CC2
:102930004B464FF00002CDF800800028EAD14FF05E
:102940004001204601F059FB40B184F8417003205A
:10295000C3E735F8020BC0F30800E3E784F84170E1
:102960000020BAE77047FEE701684A69D243520582
:102970000FD46FF480624A61002140F8301F20229A
:1029800042738173026942F0040202610173012003
:102990007047002070470000F8B50446C06A1E4624
:1029A0000D461746082807D0012805D010F5803FAE
:1029B00002D0206B122804D12068016841F4807194
:1029C0000160134600224FF001112046009600F0EE
:1029D0005DF840B120680068C00502D54FF4007072
:1029E00020640320F8BD2069B0F5804F0ED006208A
:1029F000216800EAD51040F0F000086133463A46FD
:102A00000B49204600F08AF878B902E005F0FE0094
:102A100000E0E8B221680861054933463A46891F5B
:102A2000204600F07BF80028DCD00120F8BD000033
:102A30000800010070B516460D4604461EE020460B
:102A4000FFF792FF08B1012070BD681C16D0FEF799
:102A5000BDFD801BA84200D885B920684069C043ED
:102A600040070BD5002044F8300F20216173A0737C
:102A7000216941F0200121612073E4E72068406969
:102A8000C0434007DBD4002070BD00002DE9F047B3
:102A9000984617460D460446C1F30746DDF82090D8
:102AA0002AE000BFB8F1FF3F26D0FEF78FFDA0EB74
:102AB0000901414502D8B8F1000F1DD12068012E4F
:102AC00016D0806925EA00000004000C12D0002016
:102AD000B84211D1002044F8300F20216173A07357
:102AE000216941F02001216120730120BDE8F087B8
:102AF0004069E7E70120EBE72068012E0AD08069F2
:102B000025EA00000004000C06D00020B842C9D01D
:102B10000020EBE74069F3E70120F7E72DE9F047F4
:102B2000984616460D4604464FF000094FF0200A1D
:102B3000C1F3074723E020684069C043400515D42E
:102B40002068016841F40071016021686FF48060C1
:102B50004861C4F8309084F83DA084F83E90216C20
:102B600041F00401216484F83C9021E0701C06D0FF
:102B7000FEF72CFDA0EB0800B04203D816B1012FE0
:102B80001FD021E02068012F15D0806925EA0000C0
:102B90000004000C18D000BF44F8309F84F80DA04A
:102BA00084F80E90216941F02001216184F80C9095
:102BB0000120BDE8F087406925EA00000004000C10
:102BC000EAD12068406901E02068806925EA0000B8
:102BD0000004000CAFD1ECE770B516460D46044674
:102BE0001EE02046FFF7C0FE08B1012070BD681C42
:102BF00016D0FEF7EBFC801BA84200D885B92068F0
:102C00004069C04300060BD5002044F8300F202156
:102C10006173A073216941F0200121612073E4E711
:102C200020684069C0430006DBD4002070BD00006E
:102C300001488078704700006000002010B5074C04
:102C40002078012806D1FEF7C1FCA168401A61680E
:102C5000884201D3002010BD081A10BD600000207A
:102C600001480078704700006000002010B5002285
:102C700080210948FEF7A5FC084800240068446349
:102C800021460648FFF79AFB0548047044704460EB
:102C90008460847010BD000000000240A801002084
:102CA0006000002070B50446642800D96424002226
:102CB00080210A48FEF785FC2046642C00D9642058
:102CC00007490D68E96A6422491CA1FB0001002341
:102CD000FDF7D8FA68630348847070BD00000240B5
:102CE000A8010020600000202DE9F0411A4C0F4699
:102CF00005464FF00208642801D9642500E0BDB103
:102D0000B7B1FEF763FC0646207828B160788542AB
:102D100002D16068874207D06570C4E9017601205E
:102D200020702846FFF7BEFF2078012809D011E067
:102D300000F020F884F80080657040466760BDE8C8
:102D4000F081A0686168301A884203D300F012F85D
:102D500084F800802078F2E76000002010B500F0D1
:102D600009F803480021017041704160816010BD85
:102D700060000020064810B5006800244463224625
:102D800080210448FEF71DFC0348847010BD00003C
:102D9000A801002000000240600000201FB50021B3
:102DA0001548009101910291124A039102604FF47B
:102DB0008032C0E901210161017680F820100F4ABC
:102DC000C0E90A210124C461C16080F83010446167
:102DD000FEF771F908B172B6FEE704200094CDE960
:102DE000014069460448FEF7BDF8002801D072B6DC
:102DF000FEE71FBD00200140C40000200100000FBD
:102E00002DE9F04186B014216846FDF7D3FC2B482C
:102E10000024016841F004010160016801F004012F
:102E20000591016841F001010160016801F00101B3
:102E30000591016841F0020101600068204E00F038
:102E400002004FF400550590002229463046FEF757
:102E5000B8FB1C4F002280213846FEF7B2FBDFF89A
:102E600068800022C0214046FEF7ABFB009501259B
:102E7000CDE90154694630460394FEF7ADFA2802C5
:102E8000CDE90004694638460294FEF7A5FA802091
:102E90000090CDE90154694638460394FEF79CFA48
:102EA000C02000901120CDE90104694640460394FA
:102EB000FEF792FA06B0BDE8F0810000303802401B
:102EC00000080240000002400004024010B588B033
:102ED00014216846FDF76EFC0024154805944FF058
:102EE00080410694C0E90014611EC0E902410461FA
:102EF0008461FFF79BF808B172B6FEE707200090E7
:102F00005020CDE901040420049069460848FFF7E9
:102F1000ADFA08B172B6FEE7059405A90448069417
:102F2000FFF746F8002801D072B6FEE708B010BDE2
:102F30006001002010B58EB0002407940894099415
:102F40000A940B941C2168460C94FDF733FC1E4830
:102F50001C4901600521C0E901144DF6FF71C0E96B
:102F600003148461FFF762F808B172B6FEE74FF40C
:102F70008050079007A91448FFF7F6F808B172B619
:102F8000FEE71148FFF7ECF908B172B6FEE70B94C3
:102F90000BA90D480C94FFF70BF808B172B6FEE7C9
:102FA0006020CDE90004029400226946064804949A
:102FB000FFF770F908B172B6FEE70348FFF742F970
:102FC0000EB010BD00040040A8010020FEE7000084
:102FD00004488068002803D001220249FFF730BC72
:102FE00070470000B8000020044988600020087085
:102FF000888048708870FFF7EBBF0000B8000020A1
:103000003EB50C4605002DD064B3052216A1FDF790
:1030100041FB38BB6D1D01A96846009500F02EF8F4
:1030200000B3062212A10098FDF734FBD0B9009836
:1030300002A9801D0090684600F020F890B1009829
:10304000007878B9019864280CD80B4A029991420B
:1030500008D800B131B12070019800B102986060C9
:1030600001203EBD02203EBD50554D503D000000A8
:103070002C54494D453D000080EE360070B50024CB
:1030800060B1026852B149B11378303B0A2B05D2C6
:103090000CE0DE43B6FBF5F6A64201D2002070BD7F
:1030A00004EB840403EB4404521C00E00A2513786B
:1030B000303B092BEDD9026001200C6070BD00008F
:1030C00070B590B005000FD00C4E707800280CD071
:1030D000EFF3108472B6402209496846FDF725FBDC
:1030E000002070701CB103E0022010B070BD62B609
:1030F00029466846FFF784FFF7E70000B800002084
:10310000C802002010B50E4C92B0A3686BB102B19A
:103110000122CDE9001203460AA2402102A8FDF7D0
:103120004DF9002801DD402802DB012012B010BD5E
:1031300082B2642302A9A068FFF7C4FBF6E700008F
:10314000B800002050554D505F41434B3D25752C34
:1031500054494D453D256C752C4F4B3D25750D0A49
:10316000000000002DE9F04F3B49C5B08968D1B39C
:10317000C8B3B0F90020002A01DA544200E0144636
:10318000B0F90410002901DA4B4200E00B461D465D
:10319000B0F91430002B01DAC3F1000307894FF0B6
:1031A0006406B7FBF6FCB7FBF6FA06FB1C7B4FF098
:1031B0000A07B5FBF7F607FB1659B5FBF7F6B4FBA4
:1031C000F7F507FB1545B4FBF7F490F817C090F836
:1031D000168087690DF1380E11978EE8081103DA11
:1031E0004FF02D0802E02BE04FF02B08438A077CBC
:1031F000D0F80CC0CDF828C0CDF83480CDE90B73E1
:10320000837A90F80680CDE908B3CDE9068A0029D3
:1032100001DA2D2100E02B21807802AB002A83E81F
:103220004302CDE9004501DA2D2300E02B230B4AB0
:10323000C82112A8FDF7C2F8002801DDC82803DB69
:10324000012045B0BDE8F08F82B20348642312A983
:103250008068FFF737FBF4E7B8000020904A0008C9
:10326000FEE770B500240021204600F068F8002534
:10327000002000F053F96D1CEDB2802DF8D3641CD2
:10328000E4B2082CEFD370BD10B500204FF47A7271
:103290000021491C9142FCD3401C9042F8D3AE203F
:1032A00000F02CF9D52000F029F9802000F026F953
:1032B000A82000F023F93F2000F020F9D32000F0EF
:1032C0001DF9002000F01AF9402000F017F9A120A4
:1032D00000F014F9C82000F011F9DA2000F00EF91E
:1032E000122000F00BF9812000F008F9CF2000F047
:1032F00005F9D92000F002F9F12000F0FFF8DB20F9
:1033000000F0FCF8302000F0F9F8A42000F0F6F806
:10331000A62000F0F3F88D2000F0F0F8142000F063
:10332000EDF8AF2000F0EAF8BDE81040FFF799BFD4
:103330000246012000E05043491EFCD2704710B500
:103340000C4640F0B00000F0D9F8102040EA14100C
:1033500000F0D4F804F00F00BDE8104000F0CEB843
:103360002DE9F0410746CE004000083E801E15467C
:103370004FF0FF38F1B2C0B2FFF7E1FF114800246F
:1033800000EB05152819A0F5805090F8000E00F00C
:10339000C5F8641CE4B2082CF4D308EB4700F1B282
:1033A000C0B2FFF7CCFF00242819A0F5805090F898
:1033B000080E00F0B3F8641CE4B2082CF4D3BDE8A6
:1033C000F08100008E4400082DE9F04700241D46DE
:1033D0001646884681460A2713E0291B0A20491E03
:1033E000FFF7A6FFB6FBF0F0B0FBF7F107FB110209
:1033F00008EB0400C1B248463032FFF7B1FF641C4D
:10340000E4B2AC42E9D3BDE8F0872DE9F0411546BE
:103410000E460746002406E03019C1B23846FFF7D1
:103420009FFF641CE4B22A5D002AF5D1BDE8F0815B
:1034300070B50E462DED028B154604460146B0EEE2
:10344000408A54220120FFF78BFF601CC1B2324634
:103450000120FFF785FFA01CC1B23A220120FFF72F
:103460007FFFE61C012D09D05DB1F1B21FA2BDECBA
:10347000028B0120BDE87040FFF7C7BFF1B21DA26B
:10348000F5E7B0EE480A00F073FC002801DA454287
:1034900000E00546B5F57A7F01D340F2E735002814
:1034A00001DA2D2200E02022F1B20120FFF758FFBF
:1034B0000A26B5FBF6F2201DC1B202230120FFF758
:1034C00083FFA01DC1B22E220120FFF749FFB5FBEB
:1034D000F6F0E41D06FB1052BDEC028BE1B2BDE834
:1034E000704001231846FFF76FBF0000455252207D
:1034F0002000000057414954200000001CB5002165
:1035000001918DF8050064200090022301AA782122
:103510000148FEF725F91CBD0C0100201CB507A1D0
:103520000223096801918DF805006420009001AA2A
:1035300078210348FEF714F91CBD0000400000008C
:103540000C0100200148B0F908007047700000200D
:103550000148406970470000700000200148C088A1
:10356000704700007000002001480078704700009C
:103570007000002001488088704700007000002023
:103580002DE9F84300261C4C374635462670266147
:10359000A680E6802681C4E908666670A67030467B
:1035A00000F060F815490020A84600BF41F82080CF
:1035B000401C2028FAD30025684600F021F818B1F5
:1035C00002202070BDE8F883009805F10105361847
:1035D00047EBE077042DEFD3042200233046394631
:1035E000FCF7C7FEC117206100EB91608009A08045
:1035F000E08084F80080E5E77000002038020020B9
:103600002DE9F0414FF0000507002C4626D000269A
:103610001348FDF701FE68B90A211148FDF7A6FD20
:1036200000280F4804D1FDF743FD04440C486D1CED
:10363000FDF758FE761C402EEAD37DB1402D09D20D
:10364000E017810141EA9461A0012A460023FCF7BA
:1036500090FE044600203C60BDE8F0810120FBE7BD
:10366000C400002000EE100ADFED0D0A41F288329E
:10367000B8EE400A024442F21073084980EE201A64
:10368000B2FBF3F2486100F5FA7081ED061A4A8147
:103690004FF47A72B0FBF2F088817047700000201E
:1036A00000247449F8B56846FFF7AAFF2E4C08B10C
:1036B000022057E00098C11700EB91618909E18071
:1036C0002169411ACA1701EB92604FEAA0102081CC
:1036D00003D50020494260EB0202244D0023A1FBE8
:1036E000050602FB056201FB0321214AFCF741FEAE
:1036F0004FF4A5650246A2FB050601FB0561002308
:1037000002FB03114FF47A72FCF733FE002901DA51
:10371000002005E0174B00221B1A8A4100DA1548E9
:10372000154F6378D4E9086157F823500022751BC0
:1037300061EB020147F82300281851415B1CDBB202
:10374000C4E908016370202B00D36270A278202A9C
:1037500001D2521CA270D2B20023FCF793FDFFF7F6
:1037600081FF01202070F8BD70000020F0E31200FE
:10377000C0FF030040420F003802002070470000E5
:1037800070B5FDF723FF33490A69821A61D46430AA
:103790000861FFF787FF022805D0012817D0012113
:1037A0002DA2032051E031A201210320FFF72DFEBD
:1037B00033A201210420FFF728FEFFF7DBFEBDE85E
:1037C0007040042302460A211846FFF7FDBD2FA2D0
:1037D00001210320FFF719FEFFF7BAFE024603217D
:1037E00007230846FFF7F0FD29A20A210320FFF76F
:1037F0000CFEFFF7A7FE040002D5604285B200E090
:10380000A5B225A201210420FFF7FFFDFFF7A6FEC8
:103810000423024603211846FFF7D6FD1FA2072105
:103820000420FFF7F2FD002C01DA2D2200E02B220C
:103830000A210420FFF794FD04232A460B21184691
:10384000FFF7C2FD0F2116A20420BDE87040FFF76C
:10385000DCBD70BD0000002050726573733A5741A3
:103860004954202020202020000000005072657361
:10387000733A414443204552524F52200000000009
:10388000413A2D2D2D2D205A3A000000503A0000CB
:103890002050612020202000413A000020443A00BE
:1038A000202000001CB56846FFF70AFC104C0128D8
:1038B00002D002280ED012E0FFF750FA9DF8000067
:1038C00020700199A16108B1FFF70EFA012220785A
:1038D000A16902E0002211461046FFF713FCFFF732
:1038E000BFF9012803D12078A169FFF7FDF91CBDBC
:1038F000000000207047FEF70BB8000030B593B011
:1039000030216846FCF756FF14210CA8FCF752FF43
:103910001D480024016841F080510160006800F0FA
:10392000805011901948016821F4404141F4004150
:1039300001600068022500F44040119001200390CE
:1039400010200490009506950820CDE907405420EA
:10395000CDE9090504200B906846FEF75FF908B130
:1039600072B6FEE70F20CDE90C054FF48050CDE98B
:103970000E4002210CA81094FEF764F8002801D034
:1039800072B6FEE713B030BD403802400070004010
:1039900070B5194C2068194A10F00C01184804D071
:1039A000184D042903D0082903D002601BE00560EC
:1039B00019E01149091F0B68C3F380560B6803F027
:1039C0003F0316B1B5FBF3F201E0B2FBF3F20B6873
:1039D0000968C3F388135A43C1F30141491C4900E4
:1039E000B2FBF1F101602168074AC1F30311515C98
:1039F0000268CA40026070BD083802400024F4002A
:103A00002C00002040787D017644000802480168BF
:103A100041F470010160704788ED00E0F0B5026884
:103A20001F4B204C204D214E4FF0804C984207D028
:103A3000604505D0A04203D0A84201D0B04203D1D6
:103A400022F070074A683A43984210D060450ED081
:103A5000A0420CD0A8420AD0B04208D0144CA042D8
:103A600005D0144CA04202D0134CA04203D122F442
:103A70004074CA6822434C6922F0800222438C6859
:103A8000C4620C688462984201D1096901630168CB
:103A900041F004010160012141610260F0BD0000BC
:103AA000000001400004004000080040000C0040FD
:103AB00000400140004401400048014010B501F0C1
:103AC0001F030121046A99408C430462016A9A40F1
:103AD0001143016210BD10B5846842EA032224F448
:103AE0007F440A432243826010BD826822F0700244
:103AF0000A4342F0070181607047000030B5036A55
:103B0000026A22F0010202624268846924F07305AD
:103B10000C682C4323F002058B682B430A4DA84206
:103B20000BD123F00805CB6822F440722B434D697A
:103B300023F0040315438A692A434260846149687B
:103B40004163036230BD00000000014030B5026AED
:103B5000036A23F010030362436884690D6824F448
:103B6000E64444EA05248D6822F0200242EA051268
:103B70000B4DA8420ED1CD6822F0800242EA051218
:103B80004D6923F4406343EA85038D6922F04002C6
:103B900043EA85034360846149688163026230BD02
:103BA0000000014030B5036A026A22F480720262AA
:103BB0004268C46923F4007324F073050C682C4335
:103BC0008D6843EA05230C4DA8420ED1CD6823F43D
:103BD000006343EA05234D6922F4405242EA05128C
:103BE0008D6923F4806342EA05124260C46149682A
:103BF000C163036230BD00000000014030B5046ABB
:103C0000026A22F4805202624268C3690D6823F49A
:103C1000E64343EA05238D6824F4005444EA05345E
:103C2000064DA84204D14D6922F4804242EA851231
:103C30004260C36149680164046230BD0000014014
:103C400070B5036800249A6822F070054A682A4318
:103C500022F007050A682A439A604A6812F00F0F9B
:103C600031D11211082A2ED2DFE802F02E2E2E2E8C
:103C70000B2127040B69D1E902210068FFF72BFF14
:103C800022E00A68052A10D00268136A156A25F036
:103C90000105156202689569096925F0F00545EA94
:103CA00001119161006803620EE0012070BD0A6994
:103CB0008968006800F00AF806E00A698968006807
:103CC00000F015F800E00124204670BD10B5036A2D
:103CD000046A24F001040462846924F0F00444EAD4
:103CE000021423F00A020A438461026210BD10B577
:103CF000036A046A24F010040462846923F0A003B8
:103D000024F4704444EA023243EA01118261016200
:103D100010BD000070B5FDF759FC134CE168411A65
:103D200020D400F2EE20114DE060221D40212846F3
:103D3000FDF718F8607004F1080280212846FDF7AD
:103D400011F8A07094ED010A627831210120FFF78B
:103D50006FFB94ED020AA278BDE870403221092081
:103D6000FFF766BB70BD00000000002000040240A9
:103D7000B5EEC00AB2EE041AF6EE000AF1EE10FA41
:103D800002DB40EE010A01E050EE010ABDEEE00A5E
:103D900010EE100A00B2704710B5806B0021C1858B
:103DA000FEF790FB10BD01680C3151E8002F22F4A2
:103DB000907241E80023002BF5D10168143151E8DD
:103DC000002F22F0010241E80023002BF5D1016B06
:103DD000012909D101680C3151E8002F22F01002AD
:103DE00041E80023002BF5D1202180F8421000216A
:103DF0000163704708B590F84210222901D00220D3
:103E000008BD82684FF480539A4201D1016921B103
:103E1000816A9A421BD04AB10AE00268816A5268FC
:103E2000C2F308020A80816A891C08E0026972B143
:103E30000268526802F07F020A70816A491C81623E
:103E4000C18D491E0904090CC18503D01BE002681D
:103E50005268F1E70168CA6822F02002CA6001686E
:103E6000CA6822F48072CA6001684A6922F00102BD
:103E70004A61202180F8421000214163026B012A2F
:103E800003D0FEF7EBFC002008BD016301680C3194
:103E900051E8002F22F0100241E80023002BF5D159
:103EA00001680A68D20602D50A6849680091818DC6
:103EB000FEF707FBE7E7000070B5044600680169FC
:103EC000E26821F44051114301612169A068E2696F
:103ED00008436169114308432168CA6849F20C63C9
:103EE0009A430243CA6020684169A26921F4407183
:103EF0001143416131492068884202D030498842EB
:103F000002D1FDF749FE01E0FDF736FEE26900232C
:103F1000192164253226B2F5004F626828D0A0FB33
:103F20000101930F9200FCF7ADF90146B0FBF5F0EB
:103F30006FF01802504301EB800006EB0010B0FB5D
:103F4000F5F000F0F002B1FBF5F002EB0012B1FB6E
:103F5000F5F06FF01803584301EB800006EB0010FA
:103F6000B0FBF5F000F00F0021681044886070BDD0
:103F7000A0FB010192185B41FCF784F90146B0FBFC
:103F8000F5F00201B1FBF5F06FF01803584301EBB7
:103F9000800006EBC000B0FBF5F000F0F80002EB8B
:103FA0004002B1FBF5F0584301EB800006EBC00086
:103FB000B0FBF5F000F00700D6E70000001001406C
:103FC0000014014081628285C28500214164222162
:103FD00080F84210016921B10168CA6842F4807218
:103FE000CA6001684A6942F001024A610068C1681A
:103FF00041F02001C160002070472DE9F843984648
:1040000017460D460446089E24E0701C22D0FDF79A
:10401000DDFAA0EB0800B0421AD8CEB12068C16822
:10402000490717D5802D15D0402D13D00168C943FD
:1040300009070FD401680025406800902046FFF76B
:10404000B2FE0820606484F840500120BDE8F88387
:104050000320FBE72068006835EA000004D0002058
:10406000B842D2D00020F1E70120F9E70148FEF77D
:1040700037BA0000F0010020FEE700000148808808
:104080007047000098000020014800787047000049
:104090009800002070B5154C00259FED150AE560CD
:1040A000256184ED050AA58084ED060A84ED070AE2
:1040B0006570A5700F49E570284600BF01EB8002CE
:1040C000401C82ED000A0428F8D3FDF77FFAA060B7
:1040D0000948006845620848FEF714F810B102204C
:1040E000207070BD0120E070257070BD9800002028
:1040F00000000000B80200206001002070B5334CC1
:10410000E07840B1FDF762FAA1680023421A642A00
:1041100003D2184658E0022056E02D4909684D6A3E
:104120002169DFED2C0A691A00EE101A9FED2A1A98
:1041300004F10806B8EE400A86E8230060EE200A83
:1041400000EE102AB8EE400A60EE011A80EEA10AD5
:1041500000EE901A2149F8EE600AC0EE811AD4ED03
:10416000060A71EEA00AC4ED060A607894ED071AFB
:1041700001EB8001401CD1ED000A81ED000AC0B2C4
:1041800071EE600A042870EE800AC4ED070A6070C0
:1041900000D36370A078042801D2401CA070C0B284
:1041A00000EE100AB8EE401A80EE810A9FED0C1A5C
:1041B000F6EE000A84ED050A40EE010ABCEEE00AC4
:1041C00010EE100AA0800120207070BD9800002021
:1041D0006001002000606A47CD9C5645B80200206F
:1041E0000000C84270B5FDF7F1F91B494A69821A0F
:1041F00031D464304861FFF781FF022804D00128E0
:1042000004D016A2012121E019A2FBE7FFF736FF37
:1042100004461CA201210220FFF7F7F86425B4FB35
:10422000F5F2022306211846FFF7CEF82E220821C8
:104230000220FFF795F8B4FBF5F005FB10420223CE
:1042400009211846FFF7C0F810A20B21BDE8704005
:104250000220FFF7DAB870BD00000020466C6F77CF
:104260003A574149542020202020202000000000FF
:10427000466C6F773A54494D204552524F52202098
:1042800000000000466C6F773A000000204C2F6D54
:10429000696E00000907090E002804DB00F1E02028
:1042A00080F80014704700F00F0000F1E02080F863
:1042B000141D704730380A2801D2012070470020B1
:1042C0007047000088B0FDF72BFBFFF717FBFEF7E8
:1042D00097FD4E484C49002401604D49C0E9011446
:1042E0004FF48041C0E9034144618461C4610462C8
:1042F000FDF772F908B172B6FEE7FEF71BFEFEF796
:104300004DFDFEF7E3FD41484249E43001604FF4C2
:104310001651C0E901140C21C460C0E90441846154
:10432000C461FEF71DFA08B172B6FEE7FEF7ACFFF6
:10433000FCF71AFCFCF7E6FDFEF798FCFFF720F906
:10434000FFF7A8FE3148E430FEF74EFE012132A20D
:104350000846FFF75AF835A201210220FFF755F869
:1043600037A201210320FFF750F83AA201210420CF
:10437000FFF74BF83C4C00BFFFF7CCFCFFF700FA0F
:10438000FFF730FFFFF78EFAFDF720F9E169411AD8
:10439000F2D4FA30E06194ED010AFFF7E9FCADF8E0
:1043A000000060788DF8020094ED020AFFF7E0FC4F
:1043B000ADF80400A0788DF80600FFF75FFEADF8B9
:1043C0000800FFF761FE8DF80A00FFF7C1F80390BF
:1043D000FFF7CAF88DF81000FFF7C0F8ADF812002B
:1043E000FFF7B0F8ADF81400FEF722FC8DF81600C8
:1043F000FEF736FC8DF81700FEF720FC06906846A5
:10440000FEF7B0FEB8E70000005800400C010020A5
:10441000A08601000010014054313A574149542010
:1044200054323A574149542000000000466C6F77DF
:104430003A5741495420202020202020000000002D
:1044400050726573733A5741495420202020202030
:1044500000000000413A2D2D2D2D20443A2D2D2D08
:104460002D2D202000000000000000204FF04070A3
:10447000E1EE100A70470000000000000000010299
:1044800003040607080900000000010203040000FD
:10449000000000000000000000000000000000001C
:1044A00000F80000000000000033300000000010A1
:1044B0000C06100C0600000000000000000040C0C8
:1044C0007840C0784000043F04043F0404000070BA
:1044D00088FC08300000001820FF211E0000F008B2
:1044E000F000E018000000211C031E211E0000F057
:1044F0000888700000001E2123241927211010169F
:104500000E0000000000000000000000000000009D
:1045100000E018040200000000071820400000021C
:104520000418E00000000040201807000000404090
:1045300080F0804040000202010F010202000000F2
:1045400000F0000000000101011F01010100000056
:1045500000000000000080B07000000000000000BB
:104560000000000000000001010101010101000044
:1045700000000000000000303000000000000000DB
:10458000000080601804006018060100000000E0D0
:1045900010080810E000000F102020100F0000107D
:1045A00010F8000000000020203F202000000070D4
:1045B00008080888700000302824222130000030CC
:1045C0000888884830000018202020110E000000C4
:1045D000C02010F8000000070424243F240000F845
:1045E0000888880808000019212020110E0000E02A
:1045F000108888180000000F112020110E000038CC
:104600000808C83808000000003F000000000070E3
:10461000880808887000001C222121221C0000E06C
:1046200010080810E0000000312222110F000000E5
:1046300000C0C0000000000000303000000000009A
:10464000008000000000000080600000000000000A
:1046500080402010080000010204081020004040A3
:1046600040404040400004040404040404000008E6
:10467000102040800000002010080402010000709B
:1046800048080808F0000000003036010000C03083
:10469000C828E810E0000718272423140B000000A6
:1046A000C038E0000000203C23020227382008F830
:1046B000888888700000203F202020110E00C03024
:1046C000080808083800071820202010080008F8FB
:1046D00008080810E000203F202020100F0008F8F4
:1046E0008888E8081000203F20202320180008F8C0
:1046F0008888E8081000203F200003000000C03038
:1047000008080838000007182020221E020008F8B8
:1047100008000008F808203F210101213F2000087F
:1047200008F8080800000020203F202000000000BA
:104730000808F8080800C08080807F00000008F8A2
:1047400088C028180800203F20012638200008F8DB
:10475000080000000000203F20202020300008F842
:10476000F800F8F80800203F003F003F200008F85C
:1047700030C00008F808203F200007183F00E01074
:1047800008080810E0000F10202020100F0008F883
:1047900008080808F000203F210101010000E01096
:1047A00008080810E0000F18242438504F0008F8BB
:1047B000888888887000203F2000030C302000701B
:1047C0008808080838000038202121221C00180819
:1047D00008F8080818000000203F2000000008F832
:1047E00008000008F808001F202020201F0008787B
:1047F000880000C83808000007380E010000F808DB
:1048000000F80008F800033C0700073C0300081804
:1048100068808068180820302C03032C302008386A
:10482000C800C83808000000203F20000000100821
:104830000808C83808002038262120201800000069
:1048400000FE020202000000007F40404000000C19
:1048500030C000000000000000010638C000000267
:104860000202FE000000004040407F000000000007
:10487000040202020400000000000000000000002A
:104880000000000000008080808080808080000226
:104890000204000000000000000000000000000012
:1048A0008080808000000019242222223F2008F806
:1048B000008080000000003F112020110E00000049
:1048C000008080800000000E1120202011000000D8
:1048D00000808088F800000E112020103F2000008A
:1048E000808080800000001F22222222130000808E
:1048F00080F0888888180020203F202000000000D9
:10490000808080808000006B94949493600008F80D
:10491000008080800000203F210000203F20008098
:104920009898000000000020203F20200000000098
:1049300000809898000000C08080807F000008F808
:10494000000080808000203F24022D3020000008DD
:1049500008F8000000000020203F20200000808098
:10496000808080808000203F20003F20003F8080AA
:10497000008080800000203F210000203F200000B8
:10498000808080800000001F202020201F00808069
:1049900000808000000080FFA12020110E00000098
:1049A000008080808000000E112020A0FF80808089
:1049B00080008080800020203F2120000100000036
:1049C000808080808000003324242424190000800B
:1049D00080E0808000000000001F20200000808018
:1049E000000000808000001F202020103F208080D9
:1049F00080000080808000010E3008060100808069
:104A00000080008080800F300C030C300F0000808D
:104A10008000808080000020312E0E3120008080B8
:104A200080000080808080818E70180601000080E8
:104A30008080808080000021302C22213000000006
:104A40000000807C020200000000003F40400000A7
:104A50000000FF00000000000000FF000000000256
:104A6000027C800000000040403F00000000000683
:104A70000101020204040000000000000000040024
:104A8000000800000000000000020001000010000B
:104A900054313D2563256C752E2530316C752C53B2
:104AA000313D25752C54323D2563256C752E2530FE
:104AB000316C752C53323D25752C463D2530326CBA
:104AC000752E2530326C752C53463D25752C503D86
:104AD0002530376C752C53503D25752C413D2530C4
:104AE00034752C443D25632530346C752C4D3D25A3
:104AF0003033752C4D533D25752C4D543D253031AB
:104B0000306C750D0A000000284B000800000020E2
:104B1000C4000000D0010008EC4B0008C4000020D5
:104B2000A4080000EC0100080000000000000000E4
:104B30000000000000000000000000000000000075
:104B40000000000000000000010000001000000054
:104B5000000000000024F4000004024040000000B7
:104B6000000000000004024080000000000000007F
:104B70000000000001000000000000000000000034
:104B80000000000000000000000000000000000025
:104B90000000000000000000000000000000000015
:104BA0000000000000000000000000000000000005
:104BB00000000000000000000000000000000000F5
:104BC00000000000000000000000000000000000E5
:104BD00000000000000000000000000000000000D5
:0C4BE000000000000000000000000000C9
:040000050800019559
:00000001FF
